:100000000C945B000C94EC010C9409020C9483009A
:100010000C9483000C9483000C9483000C94830054
:100020000C9483000C9483000C9483000C94830044
:100030000C9483000C9483000C9483000C94830034
:100040000C9426020C9483000C9477030C94830088
:100050000C9483000C9483000C9483000C94830014
:100060000C9483000C948300000024272A000025B0
:10007000282B000023262904040404040404040299
:100080000202020202030303030303010204081035
:100090002040800102040810200102040810200002
:1000A0000000070002010000030406000000000039
:1000B00000000000E60011241FBECFEFD4E0DEBF39
:1000C000CDBF11E0A0E0B1E0EEE4FBE002C005909E
:1000D0000D92A830B107D9F711E0A8E0B1E001C056
:1000E0001D92A43AB107E1F710E0C6EBD0E004C0DE
:1000F0002297FE010E94A105C43BD107C9F70E94C7
:10010000DF000C94A5050C94000040E855E260E087
:1001100070E08EE091E00E94F10060E080910801C3
:100120000E94180308950E94FA029C0183309105F1
:100130002CF4E0E070E080E86FEB1DC0B901882787
:1001400077FD8095982F0E94AF0420E030E040E4D6
:1001500050E40E94B4039B01AC0160E078E184EDBF
:1001600095E40E94190420E030E040E850E40E9449
:10017000B403E62F692F2E2F372F482F562FB901A2
:10018000CA010895809108010E9493000E94810491
:10019000AB01BC0140930A0150930B0160930C0129
:1001A00070930D012AE030E08EE091E00E94E101C1
:1001B0006AEF70E080E090E00E94960208950E944D
:1001C000C0020E9485000E94C200FDCF85E091E040
:1001D00090930F0180930E010895862F0E946F0364
:1001E0000895CB01BA010E94360308950F931F931F
:1001F0008C01DC01ED91FC910190F081E02D6DE02E
:100200000995D801ED91FC910190F081E02D6AE013
:10021000C80109951F910F9108952F923F924F9217
:100220005F926F927F928F929F92AF92BF92CF9286
:10023000DF92EF92FF920F931F93DF93CF93CDB78F
:10024000DEB7A0970FB6F894DEBF0FBECDBF1C017E
:100250006A017B01411551056105710549F4DC0115
:10026000ED91FC910190F081E02D60E3099554C07F
:10027000882499245401422E55246624772401E0D1
:1002800010E00C0F1D1F080D191DC701B601A301B9
:1002900092010E944E05F80160830894811C911C14
:1002A000A11CB11CC701B601A30192010E944E0519
:1002B000C901DA016C017D01C114D104E104F1042A
:1002C000F1F681E0E82EF12CEC0EFD1EE80CF91C95
:1002D0003E010894611C711CD501C4010197A1095C
:1002E000B1096C01C818D90814C0F601EE0DFF1D44
:1002F00060816A3010F4605D01C0695CD101ED91EC
:10030000FC910190F081E02DC10109950894E1086C
:10031000F1086E147F0449F7A0960FB6F894DEBF7B
:100320000FBECDBFCF91DF911F910F91FF90EF9046
:10033000DF90CF90BF90AF909F908F907F906F9005
:100340005F904F903F902F900895EF92FF920F9300
:100350001F93CF93DF93EC017A018B0177FF0FC0DE
:10036000E881F9810190F081E02D6DE20995109509
:100370000095F094E094E11CF11C011D111D2AE090
:10038000B801A701CE010E940D01DF91CF911F910D
:100390000F91FF90EF900895DC012115310541F494
:1003A000ED91FC910190F081E02D642F0995089565
:1003B0002A30310519F40E94A50108950E940D010B
:1003C00008950F931F938C010E94CC01C8010E94D5
:1003D000F6001F910F9108951F920F920FB60F9282
:1003E00011248F939F93EF93FF938091100190912D
:1003F0001101892B29F0E0911001F091110109956B
:10040000FF91EF919F918F910F900FBE0F901F90D2
:1004100018951F920F920FB60F9211248F939F93EE
:10042000EF93FF938091120190911301892B29F092
:10043000E0911201F09113010995FF91EF919F91C5
:100440008F910F900FBE0F901F9018951F920F92D3
:100450000FB60F9211242F938F939F93AF93BF9357
:100460008091140190911501A0911601B09117018E
:100470000196A11DB11D8093140190931501A093C5
:100480001601B09317018091180190911901A09164
:100490001A01B0911B018050904CAF4FBF4F809319
:1004A000180190931901A0931A01B0931B0127C062
:1004B0008091180190911901A0911A01B0911B012E
:1004C00080589E43A040B04080931801909319013A
:1004D000A0931A01B0931B0180911C0190911D0102
:1004E000A0911E01B0911F010196A11DB11D809325
:1004F0001C0190931D01A0931E01B0931F018091D8
:10050000180190911901A0911A01B0911B01815815
:100510009E43A040B04060F6BF91AF919F918F91F4
:100520002F910F900FBE0F901F901895EF92FF9292
:100530000F931F937B018C018FB7F89440911C019E
:1005400050911D0160911E0170911F018FBF2FB747
:10055000F89480911C0190911D01A0911E01B09111
:100560001F012FBF841B950BA60BB70BE816F906CE
:100570000A071B0760F71F910F91FF90EF900895F6
:10058000789484B5826084BD84B5816084BD85B56E
:10059000826085BD85B5816085BDEEE6F0E0808135
:1005A00081608083E1E8F0E08081826080838081E7
:1005B00081608083E0E8F0E0808181608083E1EB0E
:1005C000F0E0808184608083E0EBF0E080818160F6
:1005D0008083EAE7F0E080818460808380818260AC
:1005E0008083808181608083808180688083109295
:1005F000C10008958F70909100019295990F990F05
:10060000907C982B90937C0080917A0080648093FA
:100610007A0080917A0086FDFCCF2091780040918D
:100620007900942F80E030E0282B392BC901089500
:10063000282F30E0C90185579F4FFC01949129581C
:100640003F4FF9018491882381F0E82FF0E0E859C9
:10065000FF4FE491F0E0662329F48081909589238F
:10066000808308958081892B80830895EF92FF9283
:100670000F931F937B018C0122E030E040E050E0BB
:100680000E947005205C3D4B404F5F4FCA01B9018D
:10069000A80197010E947005C901DA010197A1091B
:1006A000B109292F3A2F4B2F552747FD5A9501960F
:1006B000A11DB11D2093C50081508093C400E1ECC1
:1006C000F0E0808180618083808188608083808188
:1006D000806880831F910F91FF90EF900895982F6D
:1006E0008091C00085FFFCCF9093C60008951F92B3
:1006F0000F920FB60F9211242F933F934F935F9356
:100700006F937F938F939F93AF93BF93EF93FF93D9
:100710004091C600E0912001F0912101CF010196A6
:1007200060E870E00E943B059C018091220190915D
:1007300023012817390739F0EC5DFE4F40833093D1
:10074000210120932001FF91EF91BF91AF919F91E3
:100750008F917F916F915F914F913F912F910F906A
:100760000FBE0F901F9018955058BB27AA270ED088
:1007700048C139D130F03ED120F031F49F3F11F41F
:100780001EF42EC10EF4E095E7FB24C1E92F4AD1F7
:1007900080F3BA17620773078407950718F071F49E
:1007A0009EF562C10EF4E0950B2EBA2FA02D0B0121
:1007B000B90190010C01CA01A0011124FF27591BA6
:1007C00099F0593F50F4503E68F11A16F040A22FAC
:1007D000232F342F4427585FF3CF4695379527951D
:1007E000A795F0405395C9F77EF41F16BA0B620B1C
:1007F000730B840BBAF09150A1F0FF0FBB1F661F63
:10080000771F881FC2F70EC0BA0F621F731F841FA5
:1008100048F4879577956795B795F7959E3F08F0CB
:10082000B3CF9395880F08F09927EE0F979587958A
:1008300008950CD0E6C0DED040F0D5D030F021F4E1
:100840005F3F19F0C7C0511110C1CAC0EBD098F377
:100850009923C9F35523B1F3951B550BBB27AA2741
:1008600062177307840738F09F5F5F4F220F331FB3
:10087000441FAA1FA9F333D00E2E3AF0E0E830D07F
:1008800091505040E695001CCAF729D0FE2F27D082
:10089000660F771F881FBB1F261737074807AB0750
:1008A000B0E809F0BB0B802DBF01FF2793585F4FC5
:1008B0002AF09E3F510568F08DC0D7C05F3FECF332
:1008C000983EDCF3869577956795B795F7959F5F8A
:1008D000C9F7880F911D9695879597F90895E1E0DE
:1008E000660F771F881FBB1F621773078407BA073D
:1008F00020F0621B730B840BBA0BEE1F88F7E09598
:10090000089598D088F09F5790F0B92F9927B75144
:10091000A0F0D1F0660F771F881F991F1AF0BA95C3
:10092000C9F712C0B13081F09FD0B1E008959CC0EA
:10093000672F782F8827B85F39F0B93FCCF38695B9
:1009400077956795B395D9F73EF490958095709516
:1009500061957F4F8F4F9F4F0895E89409C097FB93
:100960003EF490958095709561957F4F8F4F9F4F86
:100970009923A9F0F92F96E9BB279395F6958795CA
:1009800077956795B795F111F8CFFAF4BB0F11F48D
:1009900060FF1BC06F5F7F4F8F4F9F4F16C0882334
:1009A00011F096E911C0772321F09EE8872F762F6A
:1009B00005C0662371F096E8862F70E060E02AF0AB
:1009C0009A95660F771F881FDAF7880F9695879597
:1009D00097F9089597F99F6780E870E060E00895BF
:1009E0009FEF80EC089500240A9416161706180647
:1009F0000906089500240A94121613061406050623
:100A00000895092E0394000C11F4882352F0BB0FB3
:100A100040F4BF2B11F460FF04C06F5F7F4F8F4F16
:100A20009F4F089557FD9058440F551F59F05F3F51
:100A300071F04795880F97FB991F61F09F3F79F000
:100A400087950895121613061406551FF2CF469582
:100A5000F1DF08C0161617061806991FF1CF869504
:100A60007105610508940895E894BB2766277727E8
:100A7000CB0197F9089597FB092E07260AD077FD39
:100A800004D049D006D000201AF4709561957F4FAC
:100A90000895F6F7909581959F4F0895A1E21A2E3B
:100AA000AA1BBB1BFD010DC0AA1FBB1FEE1FFF1F12
:100AB000A217B307E407F50720F0A21BB30BE40B62
:100AC000F50B661F771F881F991F1A9469F76095A9
:100AD0007095809590959B01AC01BD01CF01089563
:100AE00097FB092E05260ED057FD04D0D7DF0AD07C
:100AF000001C38F450954095309521953F4F4F4F4D
:100B00005F4F0895F6F790958095709561957F4FAA
:100B10008F4F9F4F0895AA1BBB1B51E107C0AA1F0F
:100B2000BB1FA617B70710F0A61BB70B881F991F8E
:100B30005A95A9F780959095BC01CD010895EE0FC7
:0E0B4000FF1F0590F491E02D0994F894FFCF6B
:080B4E000100000000ED0000B1
:00000001FF
